{
  "contractName": "Chiemgauer",
  "abi": [
    {
      "constant": true,
      "inputs": [],
      "name": "mintingFinished",
      "outputs": [
        {
          "name": "",
          "type": "bool"
        }
      ],
      "payable": false,
      "stateMutability": "view",
      "type": "function"
    },
    {
      "constant": true,
      "inputs": [],
      "name": "name",
      "outputs": [
        {
          "name": "",
          "type": "string"
        }
      ],
      "payable": false,
      "stateMutability": "view",
      "type": "function"
    },
    {
      "constant": false,
      "inputs": [
        {
          "name": "_spender",
          "type": "address"
        },
        {
          "name": "_value",
          "type": "uint256"
        }
      ],
      "name": "approve",
      "outputs": [
        {
          "name": "",
          "type": "bool"
        }
      ],
      "payable": false,
      "stateMutability": "nonpayable",
      "type": "function"
    },
    {
      "constant": true,
      "inputs": [],
      "name": "totalSupply",
      "outputs": [
        {
          "name": "",
          "type": "uint256"
        }
      ],
      "payable": false,
      "stateMutability": "view",
      "type": "function"
    },
    {
      "constant": false,
      "inputs": [
        {
          "name": "_from",
          "type": "address"
        },
        {
          "name": "_to",
          "type": "address"
        },
        {
          "name": "_value",
          "type": "uint256"
        }
      ],
      "name": "transferFrom",
      "outputs": [
        {
          "name": "",
          "type": "bool"
        }
      ],
      "payable": false,
      "stateMutability": "nonpayable",
      "type": "function"
    },
    {
      "constant": true,
      "inputs": [],
      "name": "INITIAL_SUPPLY",
      "outputs": [
        {
          "name": "",
          "type": "uint256"
        }
      ],
      "payable": false,
      "stateMutability": "view",
      "type": "function"
    },
    {
      "constant": true,
      "inputs": [],
      "name": "decimals",
      "outputs": [
        {
          "name": "",
          "type": "uint8"
        }
      ],
      "payable": false,
      "stateMutability": "view",
      "type": "function"
    },
    {
      "constant": false,
      "inputs": [
        {
          "name": "_to",
          "type": "address"
        },
        {
          "name": "_amount",
          "type": "uint256"
        }
      ],
      "name": "mint",
      "outputs": [
        {
          "name": "",
          "type": "bool"
        }
      ],
      "payable": false,
      "stateMutability": "nonpayable",
      "type": "function"
    },
    {
      "constant": false,
      "inputs": [
        {
          "name": "_value",
          "type": "uint256"
        }
      ],
      "name": "burn",
      "outputs": [],
      "payable": false,
      "stateMutability": "nonpayable",
      "type": "function"
    },
    {
      "constant": false,
      "inputs": [
        {
          "name": "_spender",
          "type": "address"
        },
        {
          "name": "_subtractedValue",
          "type": "uint256"
        }
      ],
      "name": "decreaseApproval",
      "outputs": [
        {
          "name": "",
          "type": "bool"
        }
      ],
      "payable": false,
      "stateMutability": "nonpayable",
      "type": "function"
    },
    {
      "constant": true,
      "inputs": [
        {
          "name": "_owner",
          "type": "address"
        }
      ],
      "name": "balanceOf",
      "outputs": [
        {
          "name": "",
          "type": "uint256"
        }
      ],
      "payable": false,
      "stateMutability": "view",
      "type": "function"
    },
    {
      "constant": false,
      "inputs": [
        {
          "name": "_from",
          "type": "address"
        },
        {
          "name": "_value",
          "type": "uint256"
        }
      ],
      "name": "burnFrom",
      "outputs": [],
      "payable": false,
      "stateMutability": "nonpayable",
      "type": "function"
    },
    {
      "constant": false,
      "inputs": [],
      "name": "finishMinting",
      "outputs": [
        {
          "name": "",
          "type": "bool"
        }
      ],
      "payable": false,
      "stateMutability": "nonpayable",
      "type": "function"
    },
    {
      "constant": true,
      "inputs": [],
      "name": "owner",
      "outputs": [
        {
          "name": "",
          "type": "address"
        }
      ],
      "payable": false,
      "stateMutability": "view",
      "type": "function"
    },
    {
      "constant": true,
      "inputs": [],
      "name": "symbol",
      "outputs": [
        {
          "name": "",
          "type": "string"
        }
      ],
      "payable": false,
      "stateMutability": "view",
      "type": "function"
    },
    {
      "constant": false,
      "inputs": [
        {
          "name": "_to",
          "type": "address"
        },
        {
          "name": "_value",
          "type": "uint256"
        }
      ],
      "name": "transfer",
      "outputs": [
        {
          "name": "",
          "type": "bool"
        }
      ],
      "payable": false,
      "stateMutability": "nonpayable",
      "type": "function"
    },
    {
      "constant": false,
      "inputs": [
        {
          "name": "_spender",
          "type": "address"
        },
        {
          "name": "_addedValue",
          "type": "uint256"
        }
      ],
      "name": "increaseApproval",
      "outputs": [
        {
          "name": "",
          "type": "bool"
        }
      ],
      "payable": false,
      "stateMutability": "nonpayable",
      "type": "function"
    },
    {
      "constant": true,
      "inputs": [
        {
          "name": "_owner",
          "type": "address"
        },
        {
          "name": "_spender",
          "type": "address"
        }
      ],
      "name": "allowance",
      "outputs": [
        {
          "name": "",
          "type": "uint256"
        }
      ],
      "payable": false,
      "stateMutability": "view",
      "type": "function"
    },
    {
      "constant": false,
      "inputs": [
        {
          "name": "newOwner",
          "type": "address"
        }
      ],
      "name": "transferOwnership",
      "outputs": [],
      "payable": false,
      "stateMutability": "nonpayable",
      "type": "function"
    },
    {
      "inputs": [],
      "payable": false,
      "stateMutability": "nonpayable",
      "type": "constructor"
    },
    {
      "anonymous": false,
      "inputs": [
        {
          "indexed": true,
          "name": "to",
          "type": "address"
        },
        {
          "indexed": false,
          "name": "amount",
          "type": "uint256"
        },
        {
          "indexed": false,
          "name": "fullHash",
          "type": "bytes8"
        }
      ],
      "name": "Mint",
      "type": "event"
    },
    {
      "anonymous": false,
      "inputs": [
        {
          "indexed": true,
          "name": "to",
          "type": "address"
        },
        {
          "indexed": false,
          "name": "amount",
          "type": "uint256"
        }
      ],
      "name": "Mint",
      "type": "event"
    },
    {
      "anonymous": false,
      "inputs": [],
      "name": "MintFinished",
      "type": "event"
    },
    {
      "anonymous": false,
      "inputs": [
        {
          "indexed": true,
          "name": "previousOwner",
          "type": "address"
        },
        {
          "indexed": true,
          "name": "newOwner",
          "type": "address"
        }
      ],
      "name": "OwnershipTransferred",
      "type": "event"
    },
    {
      "anonymous": false,
      "inputs": [
        {
          "indexed": true,
          "name": "burner",
          "type": "address"
        },
        {
          "indexed": false,
          "name": "value",
          "type": "uint256"
        }
      ],
      "name": "Burn",
      "type": "event"
    },
    {
      "anonymous": false,
      "inputs": [
        {
          "indexed": true,
          "name": "owner",
          "type": "address"
        },
        {
          "indexed": true,
          "name": "spender",
          "type": "address"
        },
        {
          "indexed": false,
          "name": "value",
          "type": "uint256"
        }
      ],
      "name": "Approval",
      "type": "event"
    },
    {
      "anonymous": false,
      "inputs": [
        {
          "indexed": true,
          "name": "from",
          "type": "address"
        },
        {
          "indexed": true,
          "name": "to",
          "type": "address"
        },
        {
          "indexed": false,
          "name": "value",
          "type": "uint256"
        }
      ],
      "name": "Transfer",
      "type": "event"
    }
  ],
  "bytecode": "0x6003805460a060020a60ff021916905560c0604052600a60808190527f436869656d67617565720000000000000000000000000000000000000000000060a090815261004e91600491906100d9565b506040805180820190915260038082527f434d4700000000000000000000000000000000000000000000000000000000006020909201918252610093916005916100d9565b506006805460ff1916600217905560006007553480156100b257600080fd5b5060038054600160a060020a03191633600160a060020a0316179055600754600155610174565b828054600181600116156101000203166002900490600052602060002090601f016020900481019282601f1061011a57805160ff1916838001178555610147565b82800160010185558215610147579182015b8281111561014757825182559160200191906001019061012c565b50610153929150610157565b5090565b61017191905b80821115610153576000815560010161015d565b90565b610e2f806101836000396000f3006080604052600436106101065763ffffffff7c010000000000000000000000000000000000000000000000000000000060003504166305d2035b811461010b57806306fdde0314610134578063095ea7b3146101be57806318160ddd146101e257806323b872dd146102095780632ff2e9dc14610233578063313ce5671461024857806340c10f191461027357806342966c681461029757806366188463146102b157806370a08231146102d557806379cc6790146102f65780637d64bcb41461031a5780638da5cb5b1461032f57806395d89b4114610360578063a9059cbb14610375578063d73dd62314610399578063dd62ed3e146103bd578063f2fde38b146103e4575b600080fd5b34801561011757600080fd5b50610120610405565b604080519115158252519081900360200190f35b34801561014057600080fd5b50610149610426565b6040805160208082528351818301528351919283929083019185019080838360005b8381101561018357818101518382015260200161016b565b50505050905090810190601f1680156101b05780820380516001836020036101000a031916815260200191505b509250505060405180910390f35b3480156101ca57600080fd5b50610120600160a060020a03600435166024356104b4565b3480156101ee57600080fd5b506101f761051e565b60408051918252519081900360200190f35b34801561021557600080fd5b50610120600160a060020a0360043581169060243516604435610524565b34801561023f57600080fd5b506101f7610692565b34801561025457600080fd5b5061025d610698565b6040805160ff9092168252519081900360200190f35b34801561027f57600080fd5b50610120600160a060020a03600435166024356106a1565b3480156102a357600080fd5b506102af6004356107ae565b005b3480156102bd57600080fd5b50610120600160a060020a03600435166024356107bb565b3480156102e157600080fd5b506101f7600160a060020a03600435166108b4565b34801561030257600080fd5b506102af600160a060020a03600435166024356108cf565b34801561032657600080fd5b5061012061096e565b34801561033b57600080fd5b50610344610a18565b60408051600160a060020a039092168252519081900360200190f35b34801561036c57600080fd5b50610149610a27565b34801561038157600080fd5b50610120600160a060020a0360043516602435610a82565b3480156103a557600080fd5b50610120600160a060020a0360043516602435610b69565b3480156103c957600080fd5b506101f7600160a060020a0360043581169060243516610c0b565b3480156103f057600080fd5b506102af600160a060020a0360043516610c36565b60035474010000000000000000000000000000000000000000900460ff1681565b6004805460408051602060026001851615610100026000190190941693909304601f810184900484028201840190925281815292918301828280156104ac5780601f10610481576101008083540402835291602001916104ac565b820191906000526020600020905b81548152906001019060200180831161048f57829003601f168201915b505050505081565b600160a060020a03338116600081815260026020908152604080832094871680845294825280832086905580518681529051929493927f8c5be1e5ebec7d5bd14f71427d1e84f3dd0314c0f7b2291e5b200ac8c7c3b925929181900390910190a350600192915050565b60015490565b6000600160a060020a038316151561053b57600080fd5b600160a060020a03841660009081526020819052604090205482111561056057600080fd5b600160a060020a038085166000908152600260209081526040808320339094168352929052205482111561059357600080fd5b600160a060020a0384166000908152602081905260409020546105bc908363ffffffff610ccf16565b600160a060020a0380861660009081526020819052604080822093909355908516815220546105f1908363ffffffff610ce116565b600160a060020a0380851660009081526020818152604080832094909455878316825260028152838220339093168252919091522054610637908363ffffffff610ccf16565b600160a060020a03808616600081815260026020908152604080832033861684528252918290209490945580518681529051928716939192600080516020610de4833981519152929181900390910190a35060019392505050565b60075481565b60065460ff1681565b60035460009033600160a060020a039081169116146106bf57600080fd5b60035474010000000000000000000000000000000000000000900460ff16156106e757600080fd5b6001546106fa908363ffffffff610ce116565b600155600160a060020a038316600090815260208190526040902054610726908363ffffffff610ce116565b600160a060020a03841660008181526020818152604091829020939093558051858152905191927f0f6798a560793a54c3bcfe86a93cde1e73087d944c0ea20544137d412139688592918290030190a2604080518381529051600160a060020a03851691600091600080516020610de48339815191529181900360200190a350600192915050565b6107b83382610cf4565b50565b600160a060020a0333811660009081526002602090815260408083209386168352929052908120548083111561081857600160a060020a03338116600090815260026020908152604080832093881683529290529081205561084f565b610828818463ffffffff610ccf16565b600160a060020a033381166000908152600260209081526040808320938916835292905220555b600160a060020a0333811660008181526002602090815260408083209489168084529482529182902054825190815291517f8c5be1e5ebec7d5bd14f71427d1e84f3dd0314c0f7b2291e5b200ac8c7c3b9259281900390910190a35060019392505050565b600160a060020a031660009081526020819052604090205490565b600160a060020a038083166000908152600260209081526040808320339094168352929052205481111561090257600080fd5b600160a060020a0380831660009081526002602090815260408083203390941683529290522054610939908263ffffffff610ccf16565b600160a060020a038084166000908152600260209081526040808320339094168352929052205561096a8282610cf4565b5050565b60035460009033600160a060020a0390811691161461098c57600080fd5b60035474010000000000000000000000000000000000000000900460ff16156109b457600080fd5b6003805474ff00000000000000000000000000000000000000001916740100000000000000000000000000000000000000001790556040517fae5184fba832cb2b1f702aca6117b8d265eaf03ad33eb133f19dde0f5920fa0890600090a150600190565b600354600160a060020a031681565b6005805460408051602060026001851615610100026000190190941693909304601f810184900484028201840190925281815292918301828280156104ac5780601f10610481576101008083540402835291602001916104ac565b6000600160a060020a0383161515610a9957600080fd5b600160a060020a033316600090815260208190526040902054821115610abe57600080fd5b600160a060020a033316600090815260208190526040902054610ae7908363ffffffff610ccf16565b600160a060020a033381166000908152602081905260408082209390935590851681522054610b1c908363ffffffff610ce116565b600160a060020a0380851660008181526020818152604091829020949094558051868152905191933390931692600080516020610de483398151915292918290030190a350600192915050565b600160a060020a033381166000908152600260209081526040808320938616835292905290812054610ba1908363ffffffff610ce116565b600160a060020a0333811660008181526002602090815260408083209489168084529482529182902085905581519485529051929391927f8c5be1e5ebec7d5bd14f71427d1e84f3dd0314c0f7b2291e5b200ac8c7c3b9259281900390910190a350600192915050565b600160a060020a03918216600090815260026020908152604080832093909416825291909152205490565b60035433600160a060020a03908116911614610c5157600080fd5b600160a060020a0381161515610c6657600080fd5b600354604051600160a060020a038084169216907f8be0079c531659141344cd1fd0a4f28419497f9722a3daafe3b4186f6b6457e090600090a36003805473ffffffffffffffffffffffffffffffffffffffff1916600160a060020a0392909216919091179055565b600082821115610cdb57fe5b50900390565b81810182811015610cee57fe5b92915050565b600160a060020a038216600090815260208190526040902054811115610d1957600080fd5b600160a060020a038216600090815260208190526040902054610d42908263ffffffff610ccf16565b600160a060020a038316600090815260208190526040902055600154610d6e908263ffffffff610ccf16565b600155604080518281529051600160a060020a038416917fcc16f5dbb4873280815c1ee09dbd06736cffcc184412cf7a71a0fdb75d397ca5919081900360200190a2604080518281529051600091600160a060020a03851691600080516020610de48339815191529181900360200190a350505600ddf252ad1be2c89b69c2b068fc378daa952ba7f163c4a11628f55a4df523b3efa165627a7a72305820b199e17807c2154a06440be7c6abfb0d1bac6ef684c70fc9bfacf79ab36ef5600029",
  "source": "pragma solidity ^0.4.17;\n\nimport '../node_modules/openzeppelin-solidity/contracts/token/ERC20/Mintabletoken.sol';\nimport '../node_modules/openzeppelin-solidity/contracts/token/ERC20/StandardBurnableToken.sol';\n\n\ncontract Chiemgauer is StandardBurnableToken, MintableToken {\n\n   string public name = 'Chiemgauer';\n   string public symbol = 'CMG';\n   uint8 public decimals = 2;\n   uint public INITIAL_SUPPLY = 0;\n\n   event Mint(address indexed to, uint256 amount, bytes8 fullHash);\n\n   constructor () public {\n       totalSupply_ = INITIAL_SUPPLY;\n   }\n\n//   // overwrite inherited mint function\n//   function mint(address _to, uint256 _amount) onlyOwner canMint public returns (bool) {\n//      revert();\n//   }\n//\n//   // our mint function that requires a 3rd argument\n//   function mint(address _to, uint256 _amount, bytes8 _fullHash) onlyOwner canMint public returns (bool) {\n//      totalSupply_ = totalSupply_.add(_amount);\n//      balances[_to] = balances[_to].add(_amount);\n//      emit Mint(_to, _amount);\n//      emit Transfer(address(0), _to, _amount);\n//      return true;\n//   }\n}",
  "sourcePath": "/Users/julian/github/chiemgauer/contracts/Chiemgauer.sol",
  "compiler": {
    "name": "solc",
    "version": "0.4.23+commit.124ca40d.Emscripten.clang"
  },
  "schemaVersion": "2.0.0",
  "updatedAt": "2018-05-22T16:00:37.464Z"
}